:100000000C942A000C9447000C9447000C94470071
:100010000C9447000C9447000C94E2110C94470098
:100020000C9447000C94CB110C9447000C9447009F
:100030000C9447000C9447000C9447000C94470024
:100040000C9447000C9447000C9447000C94470014
:100050000C94470011241FBECFE5D8E0DEBFCDBF12
:1000600011E0A0E6B0E0E6E4FFE302C005900D92E7
:10007000AE32B107D9F711E0AEE2B1E001C01D9296
:10008000A134B107E1F70E9412130C94A11F0C9444
:100090000000EF92FF920F931F937B018C0120E0F1
:1000A00030E040E05FE40E94F50388238CF0C80153
:1000B000B70120E030E040E05FE40E94C1010E940F
:1000C00055049B01AC01205030404040504806C0D0
:1000D000C801B7010E9455049B01AC01B901CA01D6
:1000E0001F910F91FF90EF900895A0E0B0E0EBE733
:1000F000F0E00C946A1FDC012B01FA019C91923014
:1001000008F439C1EB018881823008F433C194309E
:1001100069F4843009F02FC111969C91119789815F
:10012000981709F428C1A5E2B1E025C1843009F48B
:1001300021C18230A9F4923009F01DC19A01AD01AC
:1001400088E0EA010990AE01E90109929E0181501F
:10015000C1F7E201898111969C918923818308C1AD
:10016000923009F407C112962D903C901397EB0141
:100170008A819B811496AD90BD90CD90DC901797AD
:10018000EC80FD800E811F819101281B390BB90184
:1001900037FF04C066277727621B730B6032710537
:1001A0000CF061C0121613066CF537014801062EDB
:1001B00004C096948794779467940A94D2F721E0C8
:1001C00030E040E050E004C0220F331F441F551FB1
:1001D0006A95D2F721503040404050402E213F21B7
:1001E00040235123211531054105510521F021E01E
:1001F00030E040E050E079018A01E628F72808293C
:1002000019293CC0232BD1F1260E371E350146019A
:10021000062E04C096948794779467940A94D2F734
:1002200021E030E040E050E004C0220F331F441FC3
:10023000551F6A95D2F721503040404050402A2146
:100240003B214C215D21211531054105510521F04E
:1002500021E030E040E050E059016A01A628B728CB
:10026000C828D9280BC0821593052CF01C01AA249C
:10027000BB24650103C0EE24FF24870111969C91E5
:10028000D20111968C91981709F445C0992339F041
:10029000A80197012A193B094C095D0906C0A6016E
:1002A00095012E193F09400B510B57FD08C01182D3
:1002B0003382228224833583468357831DC081E0A5
:1002C00081833382228288279927DC01821B930B4A
:1002D000A40BB50B84839583A683B7830DC0220F2F
:1002E000331F441F551F24833583468357838281E0
:1002F000938101979383828324813581468157813D
:10030000DA01C9010197A109B1098F5F9F4FAF4F72
:10031000BF4328F30BC0918333822282EA0CFB1C7B
:100320000C1D1D1DE482F5820683178383E0808304
:10033000248135814681578157FF1AC0C901AA27F8
:1003400097FDA095BA2F81709070A070B0705695EF
:10035000479537952795822B932BA42BB52B848318
:100360009583A683B7838281938101969383828349
:10037000DF0101C0D201CD01CDB7DEB7E2E10C94BF
:10038000861FA0E2B0E0E7ECF1E00C94761F6983F1
:100390007A838B839C832D833E834F835887E9E048
:1003A000EE2EF12CEC0EFD1ECE010196B7010E943F
:1003B0007E058E010F5E1F4FCE010596B8010E948B
:1003C0007E058A8991E089278A8BC701B801AE0131
:1003D000475E5F4F0E9475000E94A904A096E6E068
:1003E0000C94921FA0E2B0E0E8EFF1E00C94761FCD
:1003F00069837A838B839C832D833E834F835887C5
:10040000F9E0EF2EF12CEC0EFD1ECE010196B701A6
:100410000E947E058E010F5E1F4FCE010596B8012A
:100420000E947E05C701B801AE01475E5F4F0E9482
:1004300075000E94A904A096E6E00C94921FA0E229
:10044000B0E0E5E2F2E00C946A1F69837A838B8363
:100450009C832D833E834F835887CE010196BE0136
:10046000675F7F4F0E947E05CE010596BE016F5EDD
:100470007F4F0E947E059985923088F0898982306D
:10048000C8F0943019F4823051F404C0843029F457
:10049000923081F485E291E0C6C0923049F420E0C8
:1004A0009A858A89981321E02A87CE010996BBC0D4
:1004B000823049F420E09A858A89981321E02A8BBA
:1004C000CE014196B0C02D843E844F8458886D88FB
:1004D0007E888F88988CEE24FF248701AA24BB2471
:1004E000650140E050E060E070E0E0E0F0E0C10174
:1004F00081709070892BE9F0E60CF71C081D191D1E
:100500009A01AB012A0D3B1D4C1D5D1D80E090E062
:10051000A0E0B0E0E614F7040805190520F481E036
:1005200090E0A0E0B0E0BA01A901480F591F6A1F8E
:100530007B1FAA0CBB1CCC1CDD1C97FE08C081E0F5
:1005400090E0A0E0B0E0A82AB92ACA2ADB2A3196B6
:10055000E032F10549F0660C771C881C991C569412
:10056000479437942794C3CFFA85EA892B893C892D
:100570008B859C85280F391F2E5F3F4F17C0CA01FE
:1005800081709070892B61F016950795F794E79428
:1005900080E090E0A0E0B0E8E82AF92A0A2B1B2BC3
:1005A00076956795579547952F5F3F4F77FDE7CF36
:1005B0000CC0440F551F661F771F17FD4160EE0CDE
:1005C000FF1C001F111F21503040403090E05907A0
:1005D00090E0690790E4790760F32B8F3C8FDB0193
:1005E000CA018F779070A070B07080349105A1051A
:1005F000B10561F447FD0AC0E114F10401051105DC
:1006000029F0405C5F4F6F4F7F4F40781A8EFE1786
:1006100011F081E08A8F4D8F5E8F6F8F78A383E01A
:10062000898FCE0149960E94A904A096E2E10C941C
:10063000861FA8E1B0E0EFE1F3E00C94721F69833C
:100640007A838B839C832D833E834F835887B9E0C5
:10065000EB2EF12CEC0EFD1ECE010196B7010E948F
:100660007E058E010F5E1F4FCE010596B8010E94D8
:100670007E052985223008F47EC03989323010F495
:10068000B8017CC08A859A8989278A87243011F02D
:10069000223031F4231709F06EC065E271E06EC0BC
:1006A000343039F41D861E861F86188A1C861B86E8
:1006B00004C0323021F484E08987B7015FC02B8504
:1006C0003C858B899C89281B390B3C872B87ED84C3
:1006D000FE840F851889AD88BE88CF88D88CEA142F
:1006E000FB040C051D0540F4EE0CFF1C001F111F40
:1006F000215030403C872B8720E030E040E050E044
:1007000080E090E0A0E0B0E460E070E0EA14FB0478
:100710000C051D0540F0282B392B4A2B5B2BEA18C2
:10072000FB080C091D09B695A79597958795EE0CC2
:10073000FF1C001F111F6F5F7F4F6F31710531F775
:10074000DA01C9018F779070A070B0708034910584
:10075000A105B10561F427FD0AC0E114F10401050A
:10076000110529F0205C3F4F4F4F5F4F20782D87B8
:100770003E874F87588BBE01675F7F4FCB010E943A
:10078000A9046896EAE00C948E1FA8E1B0E0EBECB7
:10079000F3E00C94761F69837A838B839C832D838B
:1007A0003E834F83588789E0E82EF12CEC0EFD1E26
:1007B000CE010196B7010E947E058E010F5E1F4F8C
:1007C000CE010596B8010E947E058985823040F0F1
:1007D0008989823028F0C701B8010E94F60501C05E
:1007E0008FEF6896E6E00C94921FA8E1B0E0EBEF83
:1007F000F3E00C94761F69837A838B839C832D832B
:100800003E834F83588789E0E82EF12CEC0EFD1EC5
:10081000CE010196B7010E947E058E010F5E1F4F2B
:10082000CE010596B8010E947E058985823040F090
:100830008989823028F0C701B8010E94F60501C0FD
:100840008FEF6896E6E00C94921FA8E1B0E0EBE22F
:10085000F4E00C94761F69837A838B839C832D83C9
:100860003E834F83588789E0E82EF12CEC0EFD1E65
:10087000CE010196B7010E947E058E010F5E1F4FCB
:10088000CE010596B8010E947E058985823040F030
:100890008989823028F0C701B8010E94F60501C09D
:1008A00081E06896E6E00C94921FACE0B0E0EBE5E6
:1008B000F4E00C947A1F69837A838B839C83CE0146
:1008C0000196BE016B5F7F4F0E947E058D81823055
:1008D00061F1823050F1843021F48E81882351F10E
:1008E0002EC02F81388537FD20C06E812F31310514
:1008F0001CF06623F9F023C08EE190E0821B930B7D
:1009000029853A854B855C8504C056954795379572
:1009100027958A95D2F76623B1F05095409530958A
:1009200021953F4F4F4F5F4F0EC020E030E040E039
:1009300050E009C02FEF3FEF4FEF5FE704C020E02A
:1009400030E040E050E8B901CA012C96E2E00C9496
:10095000961FDF92EF92FF920F931F93FC01E480AA
:10096000F58006811781D1808081823048F480E053
:1009700090E0A0E1B0E0E82AF92A0A2B1B2BA5C0E1
:10098000843009F49FC0823021F4EE24FF248701D3
:1009900005C0E114F1040105110519F4E0E0F0E0EF
:1009A00096C0628173819FEF623879070CF05BC05B
:1009B00022E83FEF261B370B2A3131052CF020E0CF
:1009C00030E040E050E02AC0B801A701022E04C088
:1009D00076956795579547950A94D2F781E090E010
:1009E000A0E0B0E004C0880F991FAA1FBB1F2A9582
:1009F000D2F70197A109B1098E219F21A023B1232C
:100A00000097A105B10521F081E090E0A0E0B0E001
:100A10009A01AB01282B392B4A2B5B2BDA01C90138
:100A20008F779070A070B07080349105A105B105EA
:100A300039F427FF09C0205C3F4F4F4F5F4F04C080
:100A4000215C3F4F4F4F5F4FE0E0F0E02030A0E0EF
:100A50003A07A0E04A07A0E45A0710F0E1E0F0E00E
:100A600079018A0127C06038710564F5FB01E158FE
:100A7000FF4FD801C7018F779070A070B07080349D
:100A80009105A105B10539F4E7FE0DC080E490E0C1
:100A9000A0E0B0E004C08FE390E0A0E0B0E0E80E9A
:100AA000F91E0A1F1B1F17FF05C016950795F7941F
:100AB000E794319687E016950795F794E7948A9521
:100AC000D1F705C0EE24FF248701EFEFF0E06E2F91
:100AD000679566276795902F9F77D794DD24D794E5
:100AE0008E2F8695492F462B582F5D29B701CA01B5
:100AF0001F910F91FF90EF90DF900895FC01DB01B3
:100B0000408151812281622F6F7770E0221F22275E
:100B1000221F9381892F880F822B282F30E0991F65
:100B20009927991F11969C93119721153105A9F5C5
:100B3000411551056105710511F482E037C082E865
:100B40009FEF13969C938E9312979A01AB0167E0E7
:100B5000220F331F441F551F6A95D1F783E08C93F2
:100B60000DC0220F331F441F551F12968D919C916B
:100B70001397019713969C938E931297203080E0E1
:100B8000380780E0480780E4580758F314962D93FF
:100B90003D934D935C93179708952F3F310579F45A
:100BA000411551056105710519F484E08C93089590
:100BB00064FF03C081E08C9312C01C9210C02F57B9
:100BC000304013963C932E93129783E08C9387E0EA
:100BD000440F551F661F771F8A95D1F770641496CE
:100BE0004D935D936D937C93179708951F93DC014C
:100BF000FB019C91923008F447C08081823008F458
:100C000043C0943051F411961C91843099F5818140
:100C1000682F70E0611B71093FC0843021F0923071
:100C200031F48230B9F18181882389F12DC0119688
:100C30001C9111978230F1F081811817D9F4129626
:100C40002D913C911397828193818217930794F0A1
:100C500028173907BCF014968D919D910D90BC9189
:100C6000A02D2481358146815781281739074A07ED
:100C70005B0718F4112341F00AC082179307A407F9
:100C8000B50740F4112319F061E070E005C06FEF83
:100C90007FEF02C060E070E0CB011F910895DF9309
:100CA000CF93CDB7DEB7AB970FB6F894DEBF0FBECC
:100CB000CDBF8BA781E060E041E00E94240F81E07E
:100CC00061E040E00E94240F82E06BA50E94651065
:100CD00081E062E040E00E94240F80E090E0A0E824
:100CE000BFE38FA398A7A9A7BAA76FA178A589A5E5
:100CF0009AA520E030E04AEF54E40E941F02DC0194
:100D0000CB018BA39CA3ADA3BEA36BA17CA18DA1A2
:100D10009EA120E030E040E85FE30E9425048823A4
:100D20002CF481E090E09AA389A33FC06BA17CA141
:100D30008DA19EA120E03FEF4FE757E40E94C5033D
:100D400018164CF56FA178A589A59AA520E030E08A
:100D500040E251E40E941F02DC01CB01BC01CD0145
:100D60000E944900DC01CB019AA389A30FC088EC43
:100D700090E098A38F8F8F8D98A10197F1F798A39A
:100D80008F8F89A19AA101979AA389A389A19AA17A
:100D9000009769F714C06BA17CA18DA19EA10E9450
:100DA0004900DC01CB019AA389A389A19AA19E8F56
:100DB0008D8F8D8D9E8D0197F1F79E8F8D8F81E0A8
:100DC00062E041E00E94240F80E090E0A0E8BFE3F1
:100DD000898F9A8FAB8FBC8F698D7A8D8B8D9C8D0F
:100DE00020E030E04AEF54E40E941F02DC01CB0116
:100DF0008D8B9E8BAF8BB88F6D897E898F89988DF7
:100E000020E030E040E85FE30E94250488232CF4D2
:100E100081E090E09C8B8B8B3FC06D897E898F89B0
:100E2000988D20E03FEF4FE757E40E94C503181666
:100E30004CF5698D7A8D8B8D9C8D20E030E040E201
:100E400051E40E941F02DC01CB01BC01CD010E94D4
:100E50004900DC01CB019C8B8B8B0FC088EC90E0B0
:100E60009A8B898B89899A890197F1F79A8B898B5B
:100E70008B899C8901979C8B8B8B8B899C89009794
:100E800069F714C06D897E898F89988D0E94490009
:100E9000DC01CB019C8B8B8B8B899C89988B8F87FA
:100EA0008F8598890197F1F7988B8F8781E062E0B1
:100EB00040E00E94240F80E090E0A0E0B0E48B8747
:100EC0009C87AD87BE876B857C858D859E8520E060
:100ED00030E04AEF54E40E941F02DC01CB018F8313
:100EE0009887A987BA876F81788589859A8520E058
:100EF00030E040E85FE30E94250488232CF481E081
:100F000090E09E838D833FC06F81788589859A8527
:100F100020E03FEF4FE757E40E94C50318164CF559
:100F20006B857C858D859E8520E030E040E251E434
:100F30000E941F02DC01CB01BC01CD010E944900CF
:100F4000DC01CB019E838D830FC088EC90E09C83F5
:100F50008B838B819C810197F1F79C838B838D819F
:100F60009E8101979E838D838D819E81009769F775
:100F700014C06F81788589859A850E944900DC01BB
:100F8000CB019E838D838D819E819A838983898104
:100F90009A810197F1F79A838983AB960FB6F894FB
:100FA000DEBF0FBECDBFCF91DF910895DF93CF930A
:100FB000CDB7DEB7AB970FB6F894DEBF0FBECDBF8F
:100FC0008BA781E060E040E00E94240F81E061E0B7
:100FD00040E00E94240F82E06BA50E94651081E032
:100FE00062E040E00E94240F80E090E0A0E8BFE3D0
:100FF0008FA398A7A9A7BAA76FA178A589A59AA535
:1010000020E030E04AEF54E40E941F02DC01CB01F3
:101010008BA39CA3ADA3BEA36BA17CA18DA19EA11C
:1010200020E030E040E85FE30E94250488232CF4B0
:1010300081E090E09AA389A33FC06BA17CA18DA120
:101040009EA120E03FEF4FE757E40E94C50318162A
:101050004CF56FA178A589A59AA520E030E040E283
:1010600051E40E941F02DC01CB01BC01CD010E94B2
:101070004900DC01CB019AA389A30FC088EC90E062
:1010800098A38F8F8F8D98A10197F1F798A38F8FD9
:1010900089A19AA101979AA389A389A19AA10097EE
:1010A00069F714C06BA17CA18DA19EA10E9449008B
:1010B000DC01CB019AA389A389A19AA19E8F8D8F70
:1010C0008D8D9E8D0197F1F79E8F8D8F81E062E06F
:1010D00041E00E94240F80E090E0A0E8BFE3898F08
:1010E0009A8FAB8FBC8F698D7A8D8B8D9C8D20E014
:1010F00030E04AEF54E40E941F02DC01CB018D8BEB
:101100009E8BAF8BB88F6D897E898F89988D20E0FB
:1011100030E040E85FE30E94250488232CF481E05E
:1011200090E09C8B8B8B3FC06D897E898F89988DD9
:1011300020E03FEF4FE757E40E94C50318164CF537
:10114000698D7A8D8B8D9C8D20E030E040E251E4FA
:101150000E941F02DC01CB01BC01CD010E944900AD
:10116000DC01CB019C8B8B8B0FC088EC90E09A8BC1
:10117000898B89899A890197F1F79A8B898B8B8959
:101180009C8901979C8B8B8B8B899C89009769F735
:1011900014C06D897E898F89988D0E944900DC0179
:1011A000CB019C8B8B8B8B899C89988B8F878F85B0
:1011B00098890197F1F7988B8F8781E062E040E092
:1011C0000E94240F80E090E0A0E0B0E48B879C8731
:1011D000AD87BE876B857C858D859E8520E030E060
:1011E0004AEF54E40E941F02DC01CB018F839887F1
:1011F000A987BA876F81788589859A8520E030E054
:1012000040E85FE30E94250488232CF481E090E00D
:101210009E838D833FC06F81788589859A8520E084
:101220003FEF4FE757E40E94C50318164CF56B8556
:101230007C858D859E8520E030E040E251E40E946F
:101240001F02DC01CB01BC01CD010E944900DC0181
:10125000CB019E838D830FC088EC90E09C838B83B1
:101260008B819C810197F1F79C838B838D819E817B
:1012700001979E838D838D819E81009769F714C0AD
:101280006F81788589859A850E944900DC01CB01B0
:101290009E838D838D819E819A83898389819A81A2
:1012A0000197F1F79A838983AB960FB6F894DEBF66
:1012B0000FBECDBFCF91DF9108950F931F93DF93A2
:1012C000CF93CDB7DEB7CC54D0400FB6F894DEBF85
:1012D0000FBECDBF82E06FEF0E94241081E060E07E
:1012E00041E00E94AB0D81E061E041E00E94AB0D66
:1012F00081E062E041E00E94AB0DFE01E75BFF4F41
:1013000080E090E0A0E2B2E480839183A283B38383
:101310008E010B5B1F4FFE01E75BFF4F6081718108
:101320008281938120E030E04AEF54E40E941F0262
:10133000DC01CB01F80180839183A283B383FE019A
:10134000EB5BFF4F608171818281938120E030E00F
:1013500040E85FE30E942504882344F4FE01ED5B2E
:10136000FF4F81E090E09183808364C0FE01EB5BDE
:10137000FF4F608171818281938120E03FEF4FE7D1
:1013800057E40E94C50318160CF043C0FE01E75B4A
:10139000FF4F608171818281938120E030E040E2E3
:1013A00051E40E941F02DC01CB018E010D5B1F4F37
:1013B000BC01CD010E944900DC01CB01F801918301
:1013C00080831FC0FE01EF5BFF4F88EC90E09183AC
:1013D0008083FE01EF5BFF4F808191810197F1F7E0
:1013E000FE01EF5BFF4F91838083DE01AD5BBF4F5A
:1013F000FE01ED5BFF4F80819181019711969C93D7
:101400008E93FE01ED5BFF4F808191810097D1F6B5
:1014100024C08E010D5B1F4FFE01EB5BFF4F60810F
:101420007181828193810E944900DC01CB01F80126
:1014300091838083FE01ED5BFF4F80819181FE01EE
:10144000FF9691838083FE01FF96808191810197B1
:10145000F1F7FE01FF969183808388E30E94D6070F
:1014600080E090E0A4E3B2E48BAF9CAFADAFBEAF41
:101470006BAD7CAD8DAD9EAD2BEA3AEA4AE250E40D
:101480000E941F02DC01CB018FAB98AFA9AFBAAFAE
:101490006FA978AD89AD9AAD20E030E040E85FE318
:1014A0000E94250488231CF481E08EAB91C06FA9B3
:1014B00078AD89AD9AAD20E030E04FE753E40E946B
:1014C000C50318160CF07BC06BAD7CAD8DAD9EAD29
:1014D00020E030E04AE754E40E941903DC01CB012C
:1014E0008AAB9BABACABBDAB6AA97BA98CA99DA910
:1014F00020E030E04AEF54E40E941F02DC01CB01FF
:101500008EA79FA7A8ABB9AB6EA57FA588A999A9FF
:1015100020E030E040E85FE30E94250488232CF4BB
:1015200081E090E09DA78CA73FC06EA57FA588A90C
:1015300099A920E03FEF4FE757E40E94C503181632
:101540004CF56AA97BA98CA99DA920E030E040E276
:1015500051E40E941F02DC01CB01BC01CD010E94BD
:101560004900DC01CB019DA78CA70FC088EC90E05F
:101570009BA78AA78AA59BA50197F1F79BA78AA796
:101580008CA59DA501979DA78CA78CA59DA50097CF
:1015900069F724C06EA57FA588A999A90E94490072
:1015A000DC01CB019DA78CA78CA59DA599A788A739
:1015B00088A599A50197F1F799A788A70FC06FA9EA
:1015C00078AD89AD9AAD0E944900DC01CB018EABAC
:1015D0008EA98FA38FA18A95F1F78FA38EE00E9429
:1015E000D60780E090E0A4E3B2E48BA39CA3ADA374
:1015F000BEA36BA17CA18DA19EA12BEA3AEA4AE28F
:1016000050E40E941F02DC01CB018F8F98A3A9A395
:10161000BAA36F8D78A189A19AA120E030E040E8BB
:101620005FE30E94250488231CF481E08E8F91C023
:101630006F8D78A189A19AA120E030E04FE753E4B3
:101640000E94C50318160CF07BC06BA17CA18DA174
:101650009EA120E030E04AE754E40E941903DC0137
:10166000CB018A8F9B8FAC8FBD8F6A8D7B8D8C8DCC
:101670009D8D20E030E04AEF54E40E941F02DC011F
:10168000CB018E8B9F8BA88FB98F6E897F89888DB8
:10169000998D20E030E040E85FE30E942504882334
:1016A0002CF481E090E09D8B8C8B3FC06E897F890C
:1016B000888D998D20E03FEF4FE757E40E94C503E6
:1016C00018164CF56A8D7B8D8C8D9D8D20E030E059
:1016D00040E251E40E941F02DC01CB01BC01CD01BC
:1016E0000E944900DC01CB019D8B8C8B0FC088ECE4
:1016F00090E09B8B8A8B8A899B890197F1F79B8B62
:101700008A8B8C899D8901979D8B8C8B8C899D8977
:10171000009769F724C06E897F89888D998D0E9412
:101720004900DC01CB019D8B8C8B8C899D89998B29
:10173000888B888999890197F1F7998B888B0FC0DD
:101740006F8D78A189A19AA10E944900DC01CB018B
:101750008E8F8E8D8F878F858A95F1F78F8781E0A9
:101760000E94D60780E090E0A0E0B0E48B879C87E1
:10177000AD87BE876B857C858D859E8520E030E0BA
:101780004AEF54E40E941F02DC01CB018F8398874B
:10179000A987BA876F81788589859A8520E030E0AE
:1017A00040E85FE30E94250488232CF481E090E068
:1017B0009E838D833FC06F81788589859A8520E0DF
:1017C0003FEF4FE757E40E94C50318164CF56B85B1
:1017D0007C858D859E8520E030E040E251E40E94CA
:1017E0001F02DC01CB01BC01CD010E944900DC01DC
:1017F000CB019E838D830FC088EC90E09C838B830C
:101800008B819C810197F1F79C838B838D819E81D5
:1018100001979E838D838D819E81009769F714C007
:101820006F81788589859A850E944900DC01CB010A
:101830009E838D838D819E819A83898389819A81FC
:101840000197F1F79A838983C45BDF4F0FB6F89451
:10185000DEBF0FBECDBFCF91DF911F910F910895D5
:10186000DF93CF9300D00F92CDB7DEB79B838A83EF
:1018700019820EC08981282F30E08A819B81FC016A
:10188000E20FF31F80810E944F0689818F5F898359
:101890008981282F30E08A819B81FC01E20FF31FB0
:1018A0008081882339F70F900F900F90CF91DF91AF
:1018B0000895DF93CF9300D0CDB7DEB789836A83D5
:1018C0008981882329F48A8180580E94D60707C01D
:1018D0008981813021F48A8180540E94D6070F903B
:1018E0000F90CF91DF910895EF92FF920F931F9386
:1018F000DF93CF93CDB7DEB728970FB6F894DEBF4E
:101900000FBECDBF6D837E838F8398878D819E812F
:10191000AF81B8850097A105B10521F480E30E944D
:101920004F0679C081E090E0A0E0B0E089839A831F
:10193000AB83BC8336C089819A81AB81BC812AE0AC
:1019400030E040E050E0BC01CD010E94151F7B015A
:101950008C018D819E81AF81B8852AE030E040E026
:1019600050E0BC01CD010E94481FDC01CB018E0D6F
:101970009F1DA01FB11F89839A83AB83BC838D8178
:101980009E81AF81B8852AE030E040E050E0BC01A4
:10199000CD010E94481FDA01C9018D839E83AF8368
:1019A000B8878D819E81AF81B8850097A105B1056B
:1019B00011F628C089819A81AB81BC812AE030E090
:1019C00040E050E0BC01CD010E94481FDC01CB018A
:1019D0008D839E83AF83B8878D81805D0E944F0683
:1019E00089819A81AB81BC812AE030E040E050E0FF
:1019F000BC01CD010E94481FDA01C90189839A8385
:101A0000AB83BC8389819A81AB81BC818230910593
:101A1000A105B10578F628960FB6F894DEBF0FBE83
:101A2000CDBFCF91DF911F910F91FF90EF9008955F
:101A3000DF93CF93CDB7DEB780E40E94D60787E06F
:101A40000E944F0688E00E944F0688E00E944F06E1
:101A500087E00E944F0684E00E944F0684E00E94C7
:101A60004F0687E00E944F0681E80E94D60780E07B
:101A70000E944F06CF91DF910895DF93CF93CDB7AA
:101A8000DEB7A7E2B0E0E7E2F0E0808180648C930B
:101A9000A7E2B0E0E7E2F0E080818F778C93A7E2E5
:101AA000B0E0E7E2F0E080818F7D8C93A6E2B0E0C9
:101AB000E6E2F0E0808184608C93A6E2B0E0E6E2AA
:101AC000F0E0808182608C93A6E2B0E0E6E2F0E094
:101AD000808181608C93A6E2B0E0E6E2F0E0808154
:101AE00080688C93CF91DF910895DF93CF930F920D
:101AF000CDB7DEB78983A7E2B0E0E7E2F0E080810E
:101B0000807E8C93A7E2B0E0E7E2F0E090818981EB
:101B1000892B8C93A6E2B0E0E6E2F0E0808180645D
:101B20008C93E6E2F0E0808182958F70882F90E0C0
:101B3000817090700097A9F3A6E2B0E0E6E2F0E0D1
:101B4000808180618C93E4E2F0E0808191810F904C
:101B5000CF91DF910895DF93CF93CDB7DEB727976D
:101B60000FB6F894DEBF0FBECDBF89836A834B8367
:101B70008B81813009F06FC08981282F30E03F834D
:101B80002E838E819F818130910549F12E813F8185
:101B9000223031052CF48E819F81009761F0D2C0F4
:101BA0002E813F812230310571F18E819F818330FA
:101BB0009105E9F1C7C0AAE3B0E0EAE3F0E0808173
:101BC000482F8A81282F30E081E090E0022E02C069
:101BD000880F991F0A94E2F7842B8C93B3C0A7E374
:101BE000B0E0E7E3F0E08081482F8A81282F30E0E1
:101BF00081E090E0022E02C0880F991F0A94E2F75C
:101C0000842B8C939FC0A4E3B0E0E4E3F0E08081F8
:101C1000482F8A81282F30E081E090E0022E02C018
:101C2000880F991F0A94E2F7842B8C938BC0A1E351
:101C3000B0E0E1E3F0E08081482F8A81282F30E096
:101C400081E090E0022E02C0880F991F0A94E2F70B
:101C5000842B8C9377C08B81882309F073C0898192
:101C6000282F30E03D832C838C819D81813091052C
:101C700059F12C813D81223031052CF48C819D81DC
:101C8000009769F05FC02C813D812230310589F1D8
:101C90008C819D818330910509F440C053C0AAE333
:101CA000B0E0EAE3F0E08081482F8A81282F30E01D
:101CB00081E090E0022E02C0880F991F0A94E2F79B
:101CC000809584238C933EC0A7E3B0E0E7E3F0E087
:101CD0008081482F8A81282F30E081E090E0022E19
:101CE00002C0880F991F0A94E2F7809584238C9391
:101CF00029C0A4E3B0E0E4E3F0E08081482F8A81CA
:101D0000282F30E081E090E0022E02C0880F991F5A
:101D10000A94E2F7809584238C9314C0A1E3B0E089
:101D2000E1E3F0E08081482F8A81282F30E081E0D4
:101D300090E0022E02C0880F991F0A94E2F7809566
:101D400084238C9327960FB6F894DEBF0FBECDBFC9
:101D5000CF91DF910895DF93CF9300D000D00F9201
:101D6000CDB7DEB78A836B838A81282F30E03D832D
:101D70002C834C815D814130510541F18C819D81E5
:101D80008230910534F42C813D812115310561F0BB
:101D900052C04C815D814230510551F18C819D8151
:101DA00083309105B9F147C0E9E3F0E08081282F45
:101DB00030E08B81882F90E0A90102C055954795AE
:101DC0008A95E2F7CA018170898335C0E6E3F0E0C5
:101DD0008081282F30E08B81882F90E0A90102C0FC
:101DE000559547958A95E2F7CA018170898323C08A
:101DF000E3E3F0E08081282F30E08B81882F90E0B2
:101E0000A90102C0559547958A95E2F7CA018170EC
:101E1000898311C0E0E3F0E08081282F30E08B81DE
:101E2000882F90E0A90102C0559547958A95E2F761
:101E3000CA018170898389810F900F900F900F9054
:101E40000F90CF91DF910895DF93CF93CDB7DEB799
:101E500027970FB6F894DEBF0FBECDBF89836A8384
:101E60004B838B81882309F074C08981282F30E04F
:101E70003F832E838E819F818130910559F12E8180
:101E80003F81223031052CF48E819F81009769F0CB
:101E9000D2C02E813F812230310589F18E819F8110
:101EA0008330910509F440C0C6C0ABE3B0E0EBE37A
:101EB000F0E08081482F8A81282F30E081E090E097
:101EC000022E02C0880F991F0A94E2F7809584239E
:101ED0008C93B1C0A8E3B0E0E8E3F0E08081482F44
:101EE0008A81282F30E081E090E0022E02C0880F26
:101EF000991F0A94E2F7809584238C939CC0A5E3F4
:101F0000B0E0E5E3F0E08081482F8A81282F30E0BF
:101F100081E090E0022E02C0880F991F0A94E2F738
:101F2000809584238C9387C0A2E3B0E0E2E3F0E0E5
:101F30008081482F8A81282F30E081E090E0022EB6
:101F400002C0880F991F0A94E2F7809584238C932E
:101F500072C08B81813009F06EC08981282F30E0FA
:101F60003D832C838C819D818130910549F12C81A9
:101F70003D81223031052CF48C819D81009761F0E8
:101F80005AC02C813D812230310571F18C819D81B7
:101F900083309105E9F14FC0ABE3B0E0EBE3F0E053
:101FA0008081482F8A81282F30E081E090E0022E46
:101FB00002C0880F991F0A94E2F7842B8C933BC0D0
:101FC000A8E3B0E0E8E3F0E08081482F8A81282F81
:101FD00030E081E090E0022E02C0880F991F0A9441
:101FE000E2F7842B8C9327C0A5E3B0E0E5E3F0E0B3
:101FF0008081482F8A81282F30E081E090E0022EF6
:1020000002C0880F991F0A94E2F7842B8C9313C0A7
:10201000A2E3B0E0E2E3F0E08081482F8A81282F3C
:1020200030E081E090E0022E02C0880F991F0A94F0
:10203000E2F7842B8C9327960FB6F894DEBF0FBE81
:10204000CDBFCF91DF910895DF93CF9300D000D023
:10205000CDB7DEB789836A838981282F30E03C833E
:102060002B838B819C8181309105D1F02B813C8128
:10207000223031052CF48B819C81009761F01EC0C9
:102080002B813C812230310581F08B819C81833012
:10209000910581F013C0EAE3F0E08A8180830EC0ED
:1020A000E7E3F0E08A81808309C0E4E3F0E08A811D
:1020B000808304C0E1E3F0E08A8180830F900F9079
:1020C0000F900F90CF91DF910895DF93CF9300D0C1
:1020D00000D0CDB7DEB789836A838981282F30E0AD
:1020E0003C832B838B819C8181309105D1F02B81A6
:1020F0003C81223031052CF48B819C81009761F06A
:102100001EC02B813C812230310581F08B819C8166
:102110008330910581F013C0EBE3F0E08A81808386
:102120000EC0E8E3F0E08A81808309C0E5E3F0E0D7
:102130008A81808304C0E2E3F0E08A8180830F908B
:102140000F900F900F90CF91DF910895DF93CF9371
:1021500000D000D0CDB7DEB789836A838981282F6C
:1021600030E03C832B838B819C818130910549F148
:102170002B813C81223031052CF48B819C8100978E
:1021800061F05AC02B813C812230310571F18B8185
:102190009C8183309105E9F14FC0ABE3B0E0EBE304
:1021A000F0E08081482F8A81282F30E081E090E0A4
:1021B000022E02C0880F991F0A94E2F784278C939D
:1021C0003BC0A8E3B0E0E8E3F0E08081482F8A81DB
:1021D000282F30E081E090E0022E02C0880F991F86
:1021E0000A94E2F784278C9327C0A5E3B0E0E5E3E7
:1021F000F0E08081482F8A81282F30E081E090E054
:10220000022E02C0880F991F0A94E2F784278C934C
:1022100013C0A2E3B0E0E2E3F0E08081482F8A81BE
:10222000282F30E081E090E0022E02C0880F991F35
:102230000A94E2F784278C930F900F900F900F90E1
:10224000CF91DF910895DF93CF93CDB7DEB7A3E5AC
:10225000B0E0E3E5F0E0808180648C93A3E5B0E03A
:10226000E3E5F0E0808188608C93A3E5B0E0E3E5EE
:10227000F0E0808180628C93A3E5B0E0E3E5F0E0DC
:1022800080818F7E8C93A3E5B0E0E3E5F0E0808170
:1022900084608C93A3E5B0E0E3E5F0E080818E7F7D
:1022A0008C93A3E5B0E0E3E5F0E080818D7F8C9333
:1022B000CF91DF910895DF93CF930F92CDB7DEB723
:1022C0008983E2E5F0E0898180830F90CF91DF91EF
:1022D0000895DF93CF930F92CDB7DEB78983ECE5F6
:1022E000F0E0898180830F90CF91DF910895DF9393
:1022F000CF930F92CDB7DEB78983ECE5F0E089810B
:1023000080830F90CF91DF910895DF93CF93CDB766
:10231000DEB7AFE4B0E0EFE4F0E080818E7F8C9335
:10232000AFE4B0E0EFE4F0E080818D7F8C93AEE429
:10233000B0E0EEE4F0E08081877F8C93AEE4B0E023
:10234000EEE4F0E080818F7E8C93AEE4B0E0EEE4CA
:10235000F0E0808184608C93AEE4B0E0EEE4F0E0E5
:1023600080818D7F8C93AEE4B0E0EEE4F0E080817C
:102370008E7F8C93A9E5B0E0E9E5F0E08081846090
:102380008C93A9E5B0E0E9E5F0E0808180628C9370
:10239000CF91DF9108951F920F920FB60F921124E3
:1023A0008F93DF93CF93CDB7DEB780912E018F5FF0
:1023B00080932E01CF91DF918F910F900FBE0F90E0
:1023C0001F9018951F920F920FB60F9211242F9302
:1023D0003F934F935F938F939F93AF93BF93EF93ED
:1023E000FF93DF93CF93CDB7DEB780912F01882382
:1023F000A9F4E6E4F0E0808191819093310180932B
:102400003001AEE4B0E0EEE4F0E080818F7B8C93AD
:1024100081E080932F0110922E0158C080912F01EE
:10242000813061F5E6E4F0E04081518180912E0138
:10243000882F90E09C01220F331FC901880F991F3C
:10244000880F991F880F991F820F931F840F951F64
:10245000CC01A0E0B0E08093320190933301A093CF
:102460003401B0933501AEE4B0E0EEE4F0E08081F9
:1024700080648C9382E080932F0128C080912F018B
:10248000823021F5E6E4F0E04081518180912E0117
:10249000882F90E09C01220F331FC901880F991FDC
:1024A000880F991F880F991F820F931F840F951F04
:1024B000CC01A0E0B0E08093360190933701A09367
:1024C0003801B093390183E080932F01CF91DF91E0
:1024D000FF91EF91BF91AF919F918F915F914F913C
:1024E0003F912F910F900FBE0F901F901895DF9383
:1024F000CF93CDB7DEB780913C01806880933C01DB
:10250000AAE2B0E0EAE2F0E0808180618C93AAE286
:10251000B0E0EAE2F0E0808188608C9380913C0139
:102520008F7B80933C0180913C018F7D80933C01A7
:1025300080913C018F7E80933C0180913C01877F9C
:1025400080933C01AAE2B0E0EAE2F0E080818B7F78
:102550008C9380913C01846080933C0180913C018C
:10256000826080933C01E9E2F0E083E38083E0E471
:10257000F0E080913C018083CF91DF910895DF935B
:10258000CF930F92CDB7DEB78983ECE2F0E089817B
:102590008083EBE2F0E08081829586958770882FBA
:1025A00090E0817090700097A1F30F90CF91DF9130
:1025B0000895DF93CF93CDB7DEB7EBE2F0E08081F3
:1025C0008823DCF7ECE2F0E08081CF91DF91089581
:1025D000DF93CF9300D00F92CDB7DEB79B838A8372
:1025E000198219820EC08981282F30E08A819B814F
:1025F000FC01E20FF31F80810E94BF1289818F5F6F
:1026000089838981282F30E08A819B81FC01E20F38
:10261000F31F8081882339F70F900F900F90CF918F
:10262000DF9108952F923F920F931F93DF93CF93E3
:10263000CDB7DEB7CA5CD0400FB6F894DEBF0FBE90
:10264000CDBF0C946A1CCE018F549F4F26E0FC0135
:10265000DF01422F1D924A95E9F7CE018F549F4F1B
:1026600026E0FC013796DF01422F1D924A95E9F7DB
:102670000E9477120E945D090E943D0D0E94231165
:10268000FE01EF54FF4F1682FE01EF54FF4F1586F7
:10269000FE01E055FF4F1082FE01E155FF4F108211
:1026A0000C94621CFE01EF54FF4F808191818333B3
:1026B000910509F003C2FE01EF54FF4F828193811F
:1026C0008033910509F0FAC1FE01EF54FF4F848178
:1026D00095818033910509F0F1C1FE01EF54FF4F60
:1026E000868197818033910509F0E8C1FE01E155AB
:1026F000FF4F84E0808381E00E94D60780E060E0A5
:102700000E94590CCE018F549F4F1C010E94C21E83
:10271000FE01E055FF4F1082C9C1FE01EF54FF4F8B
:10272000878190858133910579F5FE01EF54FF4F44
:10273000818592858033910539F5FE01EF54FF4F75
:102740008385948580339105F9F4FE01EF54FF4FA2
:102750008585968580339105B9F481E080933D01AC
:10276000FE01E055FF4F83E0808381E00E94D607A1
:1027700080E066E00E94590C80E690E00E94300CF8
:1027800081E080933F0189C1FE01E055FF4F8081C8
:10279000823008F0C1C081E00E94D60786E690E052
:1027A0000E94300CFE01EB55FF4F80E090E0AAE75D
:1027B000B4E480839183A283B3838E010F551F4FAE
:1027C000FE01EB55FF4F608171818281938120E092
:1027D00030E04AEF54E40E941F02DC01CB01F80113
:1027E00080839183A283B383FE01EF55FF4F608105
:1027F00071818281938120E030E040E85FE30E94B4
:102800002504882344F4FE01E156FF4F81E090E067
:102810009183808364C0FE01EF55FF4F6081718119
:102820008281938120E03FEF4FE757E40E94C50388
:1028300018160CF043C0FE01EB55FF4F608171810B
:102840008281938120E030E040E251E40E941F0247
:10285000DC01CB018E0101561F4FBC01CD010E944E
:102860004900DC01CB01F801918380831FC0FE0188
:10287000E356FF4F88EC90E091838083FE01E3569E
:10288000FF4F808191810197F1F7FE01E356FF4FE1
:1028900091838083DE01A156BF4FFE01E156FF4FB9
:1028A00080819181019711969C938E93FE01E15650
:1028B000FF4F808191810097D1F627C08E0101568C
:1028C0001F4FFE01EF55FF4F60817181828193811F
:1028D0000E944900DC01CB01F80191838083DE0175
:1028E000A556BF4FFE01E156FF4F808191818D9328
:1028F0009C93FE01E556FF4F808191810197F1F78E
:10290000FE01E556FF4F91838083CE018F549F4F88
:102910001C010E94C21EC1C0FE01E055FF4F808114
:10292000823009F0BAC081E00E94D6078BE790E0C0
:102930000E94300CFE01E956FF4F80E090E0AAE7CC
:10294000B4E480839183A283B3838E010D561F4F1D
:10295000FE01E956FF4F608171818281938120E001
:1029600030E04AEF54E40E941F02DC01CB01F80181
:1029700080839183A283B383FE01ED56FF4F608174
:1029800071818281938120E030E040E85FE30E9422
:102990002504882344F4FE01EF56FF4F81E090E0C8
:1029A0009183808364C0FE01ED56FF4F6081718189
:1029B0008281938120E03FEF4FE757E40E94C503F7
:1029C00018160CF043C0FE01E956FF4F608171817B
:1029D0008281938120E030E040E251E40E941F02B6
:1029E000DC01CB018E010F561F4FBC01CD010E94AF
:1029F0004900DC01CB01F801918380831FC0FE01F7
:102A0000E157FF4F88EC90E091838083FE01E1570E
:102A1000FF4F808191810197F1F7FE01E157FF4F50
:102A200091838083DE01AF56BF4FFE01EF56FF4F0B
:102A300080819181019711969C938E93FE01EF56B0
:102A4000FF4F808191810097D1F627C08E010F56EC
:102A50001F4FFE01ED56FF4F60817181828193818E
:102A60000E944900DC01CB01F80191838083DE01E3
:102A7000A357BF4FFE01EF56FF4F808191818D9389
:102A80009C93FE01E357FF4F808191810197F1F7FD
:102A9000FE01E357FF4F91838083DE01A055BF4FB6
:102AA000FE01E055FF4F80818F5F8C93FE01E05562
:102AB000FF4F8081823008F430CE78C6FE01EF549B
:102AC000FF4F808191818233910509F0FFC1FE01A2
:102AD000EF54FF4F828193818033910509F0F6C155
:102AE000FE01EF54FF4F848195818033910509F0F9
:102AF000EDC1FE01EF54FF4F868197818033910530
:102B000009F0E4C1FE01E155FF4F84E0808381E0DC
:102B10000E94D60780E060E00E94590CCE018F54DD
:102B20009F4F1C010E94C21EFE01E055FF4F108204
:102B3000C5C1FE01EF54FF4F878190858533910514
:102B400079F5FE01EF54FF4F818592858033910521
:102B500039F5FE01EF54FF4F83859485803391054D
:102B6000F9F4FE01EF54FF4F85859685803391057A
:102B7000B9F481E080933D01FE01E055FF4F82E012
:102B8000808381E00E94D60780E066E00E94590CB5
:102B900087E890E00E94300C81E080933F0185C17E
:102BA000FE01E055FF4F8081823008F0BDC081E01A
:102BB0000E94D607FE01E757FF4F80E090E0AAE7AA
:102BC000B4E480839183A283B3838E010B571F4F9C
:102BD000FE01E757FF4F608171818281938120E080
:102BE00030E04AEF54E40E941F02DC01CB01F801FF
:102BF00080839183A283B383FE01EB57FF4F6081F3
:102C000071818281938120E030E040E85FE30E949F
:102C10002504882344F4FE01ED57FF4F81E090E046
:102C20009183808364C0FE01EB57FF4F6081718107
:102C30008281938120E03FEF4FE757E40E94C50374
:102C400018160CF043C0FE01E757FF4F60817181F9
:102C50008281938120E030E040E251E40E941F0233
:102C6000DC01CB018E010D571F4FBC01CD010E942D
:102C70004900DC01CB01F801918380831FC0FE0174
:102C8000EF57FF4F88EC90E091838083FE01EF5770
:102C9000FF4F808191810197F1F7FE01EF57FF4FC0
:102CA00091838083DE01AD57BF4FFE01ED57FF4F8B
:102CB00080819181019711969C938E93FE01ED572F
:102CC000FF4F808191810097D1F627C08E010D576B
:102CD0001F4FFE01EB57FF4F60817181828193810D
:102CE0000E944900DC01CB01F80191838083DE0161
:102CF000A158BF4FFE01ED57FF4F808191818D9309
:102D00009C93FE01E158FF4F808191810197F1F77B
:102D1000FE01E158FF4F91838083CE018F549F4F76
:102D20001C010E94C21EC1C0FE01E055FF4F808100
:102D3000823009F0BAC081E00E94D6078BE790E0AC
:102D40000E94300CFE01E558FF4F80E090E0AAE7BA
:102D5000B4E480839183A283B3838E0109581F4F0B
:102D6000FE01E558FF4F608171818281938120E0EF
:102D700030E04AEF54E40E941F02DC01CB01F8016D
:102D800080839183A283B383FE01E958FF4F608162
:102D900071818281938120E030E040E85FE30E940E
:102DA0002504882344F4FE01EB58FF4F81E090E0B6
:102DB0009183808364C0FE01E958FF4F6081718177
:102DC0008281938120E03FEF4FE757E40E94C503E3
:102DD00018160CF043C0FE01E558FF4F6081718169
:102DE0008281938120E030E040E251E40E941F02A2
:102DF000DC01CB018E010B581F4FBC01CD010E949D
:102E00004900DC01CB01F801918380831FC0FE01E2
:102E1000ED58FF4F88EC90E091838083FE01ED58E0
:102E2000FF4F808191810197F1F7FE01ED58FF4F2F
:102E300091838083DE01AB58BF4FFE01EB58FF4FFB
:102E400080819181019711969C938E93FE01EB589E
:102E5000FF4F808191810097D1F627C08E010B58DA
:102E60001F4FFE01E958FF4F60817181828193817C
:102E70000E944900DC01CB01F80191838083DE01CF
:102E8000AF58BF4FFE01EB58FF4F808191818D936A
:102E90009C93FE01EF58FF4F808191810197F1F7DC
:102EA000FE01EF58FF4F91838083DE01A055BF4F95
:102EB000FE01E055FF4F80818F5F8C93FE01E0554E
:102EC000FF4F8081823008F434CE70C4FE01EF548D
:102ED000FF4F808191818633910509F003C2FE0185
:102EE000EF54FF4F828193818033910509F0FAC13D
:102EF000FE01EF54FF4F848195818033910509F0E5
:102F0000F1C1FE01EF54FF4F868197818033910517
:102F100009F0E8C1FE01E155FF4F84E0808381E0C4
:102F20000E94D60780E060E00E94590CCE018F54C9
:102F30009F4F1C010E94C21EFE01E055FF4F1082F0
:102F4000C9C1FE01EF54FF4F8781908588339105F9
:102F500079F5FE01EF54FF4F81859285803391050D
:102F600039F5FE01EF54FF4F838594858033910539
:102F7000F9F4FE01EF54FF4F858596858033910566
:102F8000B9F481E080933D01FE01E055FF4F82E0FE
:102F9000808381E00E94D60780E064E00E94590CA3
:102FA00087E890E00E94300C81E080933F0189C166
:102FB000FE01E055FF4F8081823008F0C1C081E002
:102FC0000E94D60786E690E00E94300CFE01E3598D
:102FD000FF4F80E090E0AAE7B4E480839183A2836E
:102FE000B3838E0107591F4FFE01E359FF4F6081E4
:102FF00071818281938120E030E04AEF54E40E94A5
:103000001F02DC01CB01F80180839183A283B3838B
:10301000FE01E759FF4F608171818281938120E039
:1030200030E040E85FE30E942504882344F4FE0179
:10303000E959FF4F81E090E09183808364C0FE01F5
:10304000E759FF4F608171818281938120E03FEFDA
:103050004FE757E40E94C50318160CF043C0FE0169
:10306000E359FF4F608171818281938120E030E0DC
:1030700040E251E40E941F02DC01CB018E0109599C
:103080001F4FBC01CD010E944900DC01CB01F801BA
:10309000918380831FC0FE01EB59FF4F88EC90E0C5
:1030A00091838083FE01EB59FF4F808191810197CD
:1030B000F1F7FE01EB59FF4F91838083DE01A9599F
:1030C000BF4FFE01E959FF4F808191810197119611
:1030D0009C938E93FE01E959FF4F80819181009767
:1030E000D1F627C08E0109591F4FFE01E759FF4F46
:1030F00060817181828193810E944900DC01CB0152
:10310000F80191838083DE01AD59BF4FFE01E9597B
:10311000FF4F808191818D939C93FE01ED59FF4F6C
:10312000808191810197F1F7FE01ED59FF4F918365
:103130008083CE018F549F4F1C010E94C21EC1C0CC
:10314000FE01E055FF4F8081823009F0BAC081E076
:103150000E94D6078BE790E00E94300CFE01E15AF6
:10316000FF4F80E090E0AAE7B4E480839183A283DC
:10317000B3838E01055A1F4FFE01E15AFF4F608154
:1031800071818281938120E030E04AEF54E40E9413
:103190001F02DC01CB01F80180839183A283B383FA
:1031A000FE01E55AFF4F608171818281938120E0A9
:1031B00030E040E85FE30E942504882344F4FE01E8
:1031C000E75AFF4F81E090E09183808364C0FE0165
:1031D000E55AFF4F608171818281938120E03FEF4A
:1031E0004FE757E40E94C50318160CF043C0FE01D8
:1031F000E15AFF4F608171818281938120E030E04C
:1032000040E251E40E941F02DC01CB018E01075A0B
:103210001F4FBC01CD010E944900DC01CB01F80128
:10322000918380831FC0FE01E95AFF4F88EC90E034
:1032300091838083FE01E95AFF4F8081918101973C
:10324000F1F7FE01E95AFF4F91838083DE01A75A0F
:10325000BF4FFE01E75AFF4F808191810197119680
:103260009C938E93FE01E75AFF4F808191810097D6
:10327000D1F627C08E01075A1F4FFE01E55AFF4FB6
:1032800060817181828193810E944900DC01CB01C0
:10329000F80191838083DE01AB5ABF4FFE01E75AEC
:1032A000FF4F808191818D939C93FE01EB5AFF4FDC
:1032B000808191810197F1F7FE01EB5AFF4F9183D5
:1032C0008083DE01A055BF4FFE01E055FF4F808196
:1032D0008F5F8C93FE01E055FF4F8081823008F4B0
:1032E00030CE64C2FE01EF54FF4F8081918185375B
:1032F000910509F0D5C1FE01EF54FF4F8281938102
:103300008337910509F0CCC1FE01EF54FF4F848152
:1033100095818536910509F0C3C1FE01EF54FF4F39
:10332000868197818237910509F0BAC1FE01E15586
:10333000FF4F84E0808381E00E94D60780E060E058
:103340000E94590CCE018F549F4F1C010E94C21E37
:10335000FE01E055FF4F10829BC1FE01EF54FF4F6D
:10336000878190858833910579F5FE01EF54FF4FF1
:10337000818592858033910539F5FE01EF54FF4F29
:103380008385948580339105F9F4FE01EF54FF4F56
:103390008585968580339105B9F481E080933D0160
:1033A000FE01E055FF4F82E0808381E00E94D60756
:1033B00080E064E00E94590C87E890E00E94300CA5
:1033C00081E080933F015BC1FE01E055FF4F8081AA
:1033D000823008F0C1C081E00E94D60786E690E006
:1033E0000E94300CFE01EF5AFF4F80E090E0AAE708
:1033F000B4E480839183A283B3838E01035B1F4F68
:10340000FE01EF5AFF4F608171818281938120E03C
:1034100030E04AEF54E40E941F02DC01CB01F801C6
:1034200080839183A283B383FE01E35BFF4F6081BE
:1034300071818281938120E030E040E85FE30E9467
:103440002504882344F4FE01E55BFF4F81E090E012
:103450009183808364C0FE01E35BFF4F60817181D3
:103460008281938120E03FEF4FE757E40E94C5033C
:1034700018160CF043C0FE01EF5AFF4F60817181B6
:103480008281938120E030E040E251E40E941F02FB
:10349000DC01CB018E01055B1F4FBC01CD010E94F9
:1034A0004900DC01CB01F801918380831FC0FE013C
:1034B000E75BFF4F88EC90E091838083FE01E75B40
:1034C000FF4F808191810197F1F7FE01E75BFF4F8C
:1034D00091838083DE01A55BBF4FFE01E55BFF4F5B
:1034E00080819181019711969C938E93FE01E55BFB
:1034F000FF4F808191810097D1F627C08E01055B37
:103500001F4FFE01E35BFF4F6081718182819381D8
:103510000E944900DC01CB01F80191838083DE0128
:10352000A95BBF4FFE01E55BFF4F808191818D93C9
:103530009C93FE01E95BFF4F808191810197F1F738
:10354000FE01E95BFF4F91838083CE018F549F4F33
:103550001C010E94C21E93C0FE01E055FF4F8081F6
:10356000823009F08CC081E00E94D6078BE790E0A2
:103570000E94300CFE01ED5BFF4F80E090E0AAE777
:10358000B4E480839183A283B3838E01015C1F4FD7
:10359000FE01ED5BFF4F608171818281938120E0AC
:1035A00030E04AEF54E40E941F02DC01CB01F80135
:1035B00080839183A283B383FE01FF966081718132
:1035C0008281938120E030E040E85FE30E9425049F
:1035D00088232CF481E090E09EAF8DAF46C0FE01C1
:1035E000FF96608171818281938120E03FEF4FE7F8
:1035F00057E40E94C503181664F5FE01ED5BFF4F0A
:10360000608171818281938120E030E040E251E469
:103610000E941F02DC01CB01BC01CD010E944900C8
:10362000DC01CB019EAF8DAF0FC088EC90E09CAF6A
:103630008BAF8BAD9CAD0197F1F79CAF8BAF8DAD90
:103640009EAD01979EAF8DAF8DAD9EAD009769F792
:1036500016C0FE01FF9660817181828193810E9474
:103660004900DC01CB019EAF8DAF8DAD9EAD9AAF11
:1036700089AF89AD9AAD0197F1F79AAF89AFDE01B5
:10368000A055BF4FFE01E055FF4F80818F5F8C93A7
:10369000FE01E055FF4F8081823008F45ECE86C087
:1036A000FE01E155FF4F8081833008F07FC081E04B
:1036B0000E94D6078DE890E00E94300C80E090E0F8
:1036C000AAE7B4E48DAB9EABAFABB8AF6DA97EA952
:1036D0008FA998AD20E030E04AEF54E40E941F0229
:1036E000DC01CB0189AB9AABABABBCAB69A97AA9C6
:1036F0008BA99CA920E030E040E85FE30E9425040C
:1037000088232CF481E090E098AB8FA73FC069A993
:103710007AA98BA99CA920E03FEF4FE757E40E94CC
:10372000C50318164CF56DA97EA98FA998AD20E0A8
:1037300030E040E251E40E941F02DC01CB01BC01F9
:10374000CD010E944900DC01CB0198AB8FA70FC0CF
:1037500088EC90E09EA78DA78DA59EA50197F1F717
:103760009EA78DA78FA598A9019798AB8FA78FA526
:1037700098A9009769F714C069A97AA98BA99CA98F
:103780000E944900DC01CB0198AB8FA78FA598A9B7
:103790009CA78BA78BA59CA50197F1F79CA78BA74E
:1037A000CE018F549F4F1C010E94711EFE01E155F6
:1037B000FF4F8081823009F07CC081E080933D0121
:1037C00081E00E94D60780EA90E00E94300C80E001
:1037D00090E0AAE7B4E48FA398A7A9A7BAA76FA11E
:1037E00078A589A59AA520E030E04AEF54E40E942C
:1037F0001F02DC01CB018BA39CA3ADA3BEA36BA1D5
:103800007CA18DA19EA120E030E040E85FE30E9412
:10381000250488232CF481E090E09AA389A33FC07B
:103820006BA17CA18DA19EA120E03FEF4FE757E463
:103830000E94C50318164CF56FA178A589A59AA515
:1038400020E030E040E251E40E941F02DC01CB01A5
:10385000BC01CD010E944900DC01CB019AA389A3E0
:103860000FC088EC90E098A38F8F8F8D98A101975F
:10387000F1F798A38F8F89A19AA101979AA389A3A1
:1038800089A19AA1009769F714C06BA17CA18DA1B1
:103890009EA10E944900DC01CB019AA389A389A1C2
:1038A0009AA19E8F8D8F8D8D9E8D0197F1F79E8FA2
:1038B0008D8FDE01A155BF4FFE01E155FF4F808185
:1038C0008F5F8C93FE01E155FF4F8081833010F4B0
:1038D0000C94521380913D01882311F40C9423130E
:1038E000FAC180E090E0AAEFB4E4898F9A8FAB8FA1
:1038F000BC8F698D7A8D8B8D9C8D20E030E04AEFF6
:1039000054E40E941F02DC01CB018D8B9E8BAF8B98
:10391000B88F6D897E898F89988D20E030E040E8EE
:103920005FE30E94250488232CF481E090E09C8BC7
:103930008B8B3FC06D897E898F89988D20E03FEF0A
:103940004FE757E40E94C50318164CF5698D7A8D30
:103950008B8D9C8D20E030E040E251E40E941F02FC
:10396000DC01CB01BC01CD010E944900DC01CB018F
:103970009C8B8B8B0FC088EC90E09A8B898B89890C
:103980009A890197F1F79A8B898B8B899C8901978A
:103990009C8B8B8B8B899C89009769F714C06D89F0
:1039A0007E898F89988D0E944900DC01CB019C8B18
:1039B0008B8B8B899C89988B8F878F8598890197B2
:1039C000F1F7988B8F8781E00E94D60780E060E056
:1039D0000E94590C8AEA90E00E94300C80E067E077
:1039E0000E94590C80EB90E00E94300C81E060E076
:1039F0000E94590C86EB90E00E94300C81E067E059
:103A00000E94590C8DEB90E00E94300C81E06DE03B
:103A10000E94590C83EC90E00E94300C0E94D91255
:103A20008093400180914001813361F580913E0196
:103A30008823B9F481E063E041E00E94AB0D81E0AE
:103A40000E94D60780E060E00E94590C87EC90E06D
:103A50000E94300C8DE00E94771181E080933E013E
:103A60003AC180913E01813009F035C181E00E9468
:103A7000D60780E060E00E94590C81ED90E00E9442
:103A8000300C29C180914001823399F580913E012B
:103A90008130B1F481E063E041E00E94AB0D81E050
:103AA0000E94D60780E060E00E94590C83EE90E00F
:103AB0000E94300C8BE40E94771110923E010BC1E2
:103AC00080913E01882309F006C181E00E94D6075B
:103AD00080E062E00E94590C8EEE90E00E94300C73
:103AE00081E065E00E94590C8CEF90E00E94300C60
:103AF000F2C080914001833309F0CCC081E00E9484
:103B0000D607FE01E355FF4F11821082FE01E555F5
:103B1000FF4F11821082FE01E755FF4F1182108284
:103B200080E00E94750DFE01E355FF4F9183808375
:103B3000FE01E355FF4F2081318188E893E1AC011C
:103B4000249FC001259F900D349F900D1124FE01EC
:103B5000E555FF4F892F9927918380838E01075563
:103B60001F4FFE01E555FF4F808191812AE030E033
:103B7000B9010E94341FCB01D8018D939C9380E042
:103B800060E00E94590C84E091E00E94300CFE013C
:103B9000E755FF4F80819181CC01A0E0B0E0BC01EE
:103BA000CD010E94740C8AE091E00E94300C80E00C
:103BB00090E8ABE3B5E48B879C87AD87BE876B85C8
:103BC0007C858D859E8520E030E04AEF54E40E949C
:103BD0001F02DC01CB018F839887A987BA876F8189
:103BE000788589859A8520E030E040E85FE30E948F
:103BF000250488232CF481E090E09E838D833FC0D0
:103C00006F81788589859A8520E03FEF4FE757E4FB
:103C10000E94C50318164CF56B857C858D859E85A5
:103C200020E030E040E251E40E941F02DC01CB01C1
:103C3000BC01CD010E944900DC01CB019E838D8334
:103C40000FC088EC90E09C838B838B819C810197D3
:103C5000F1F79C838B838D819E8101979E838D8359
:103C60008D819E81009769F736C06F81788589853F
:103C70009A850E944900DC01CB019E838D838D8152
:103C80009E819A83898389819A810197F1F79A832A
:103C9000898321C0809140018433A9F481E00E948E
:103CA000D60780E061E041E00E94AB0D80E061E07A
:103CB0000E94A61080E060E00E94590C8CE091E028
:103CC0000E94300C08C080914001853321F410928D
:103CD0003F0110923D0180913F01882309F001CE00
:103CE000F9CD2F923F92DF93CF9300D00F92CDB7B3
:103CF000DEB73B822A82EA81FB81168281E00E9444
:103D0000D60780E060E00E94590C87E191E00E94B4
:103D1000300C19822CC00E94D912EA81FB81868363
:103D20008981882F90E0880F991FEA81FB81E80F35
:103D3000F91F808191810E94BF12EA81FB818681F7
:103D40000E944F068981482F50E0EA81FB818681DD
:103D5000882F90E09C01CA01880F991FEA81FB819E
:103D6000E80FF91F3183208389818F5F89838981DF
:103D7000843088F20F900F900F90CF91DF913F9099
:103D80002F9008952F923F92DF93CF9300D00F9200
:103D9000CDB7DEB73B822A82EA81FB81158681E0BE
:103DA0000E94D60780E060E00E94590C8BE191E010
:103DB0000E94300C19822EC00E94D912EA81FB8128
:103DC00085878981882F90E0880F991F2A813B8100
:103DD000820F931FFC013796808191810E94BF1250
:103DE0008AE20E944F068981282F30E0EA81FB8118
:103DF0008585882F90E0AC01C901880F991F2A8121
:103E00003B81820F931FFC01379651834083898148
:103E10008F5F89838981843078F20F900F900F90A3
:103E2000CF91DF913F902F900895629FD001739FB3
:103E3000F001829FE00DF11D649FE00DF11D929F46
:103E4000F00D839FF00D749FF00D659FF00D992785
:103E5000729FB00DE11DF91F639FB00DE11DF91FA9
:103E6000BD01CF0111240895AA1BBB1B51E107C05E
:103E7000AA1FBB1FA617B70710F0A61BB70B881FFA
:103E8000991F5A95A9F780959095BC01CD01089589
:103E9000A1E21A2EAA1BBB1BFD010DC0AA1FBB1F4E
:103EA000EE1FFF1FA217B307E407F50720F0A21BC0
:103EB000B30BE40BF50B661F771F881F991F1A942D
:103EC00069F760957095809590959B01AC01BD0157
:103ED000CF0108952F923F924F925F926F927F92FF
:103EE0008F929F92AF92BF92CF92DF92EF92FF920A
:103EF0000F931F93CF93DF93CDB7DEB7CA1BDB0BB6
:103F00000FB6F894DEBF0FBECDBF09942A8839885A
:103F100048885F846E847D848C849B84AA84B98461
:103F2000C884DF80EE80FD800C811B81AA81B9816D
:103F3000CE0FD11D0FB6F894DEBF0FBECDBFED0181
:063F40000895F894FFCF84
:103F460048656C6C6F0057726F6E672050617373B3
:103F56002054727920416761696E0057726F6E67EF
:103F66002050617373200048454C4C4F0057726FC8
:103F76006E672049442054727920416761696E005A
:103F860057726F6E672049442000313A4F2F440024
:103F9600323A432F4400333A54656D7000343A4C3C
:103FA600454400353A30004F70656E20446F6F729D
:103FB60000446F6F7220416C7265616479204F70A6
:103FC600656E00436C6F736520446F6F7200446FBB
:103FD6006F7220416C7265616479200020436C6FBA
:103FE6007365640054656D703A0043004C45443A6D
:103FF6004F4E2F4F66660049443A005061737377FF
:0E4006006F72643A000000000000000000002D
:00000001FF
